:020000040000fa
:10000000f87f0020651a00003f2100008f210000ca
:1000100000000000000000000000000000000000e0
:10002000000000000000000000000000cf1e0000e3
:100030000000000000000000cf1e0000cf1e0000e6
:10004000cf1e0000cf1e0000cf1e0000cf1e0000fc
:10005000cf1e0000cf1e0000cf1e0000cf1e0000ec
:10006000cf1e0000cf1e0000cf1e0000cf1e0000dc
:10007000f90b0000cf1e0000cf1e0000cf1e0000b5
:10008000cf1e0000cf1e0000cf1e0000cf1e0000bc
:10009000cf1e0000cf1e0000cf1e0000cf1e0000ac
:1000a000cf1e0000cf1e0000cf1e0000cf1e00009c
:020000040000fa
:1000b000f8b5c046f8bc08bc9e467047451a00001b
:1000c000f8b5c046f8bc08bc9e4670471d1a000033
:020000040000fa
:1000d000f0b557464e464546de46e0b50c030600f1
:1000e000480087b092469846240b400dcf0f002859
:1000f00000d178e07b4b984200d190e0730fe40090
:100100001c438023784a1b041c4394460300634429
:100110000093002399469b46f500434642461e0342
:10012000d20f5b005046360b5b0d904600d180e04d
:100130006c4a93421dd06c49420f8c46009963442f
:10014000f6008c46164380229c44120463461643f4
:10015000c200002000930099434601318c46494675
:100160007b4001930f2900d9c6e0604b89005958a4
:100170008f465c4952468c46009b32436344009351
:10018000002a00d08de04946022319438946002603
:100190000220e0e7434601933400150083465b46a6
:1001a000022b64d0032b00d1f1e1012b00d05ee1e2
:1001b00000220026002500213603340b0e0d3605e3
:1001c00026434b4c120534401443019b6400db076b
:1001d00064081c432800210007b03cbc90469946a7
:1001e000a246ab46f0bd2500354352d0002c00d1cd
:1001f00076e1200001f026fd02000b3a1d230100ec
:100200009b1a3200350008398c40da408d40144387
:10021000384b1b1a0093002399469b467de7350017
:1002200025432fd108239946063b002400909b4686
:1002300073e7524632431ed0002e00d142e1300017
:1002400001f000fd02000b3a1d2301009b1a5246eb
:100250000839da408e40164352468a40009b2549b1
:10026000181a03008c4663440093002073e71d4a6c
:10027000002600259fe749460123194389460026a9
:10028000012068e70c239946093b350000909b4606
:1002900043e70423994600230093013300249b463f
:1002a0003be74a4603231a4391460320524652e74e
:1002b000019774e700238026019336030025094a3d
:1002c00079e780231b031c4200d1f3e01e4200d0db
:1002d000f0e01e43434636031500360b0193014af6
:1002e00069e7c046ff07000001fcffffc81b0000d4
:1002f000ffff0f800dfcffff2f0c2d042d0c2b009a
:10030000110c1204120c53439846130028007b432f
:10031000994648434844834640460b00000c8246b9
:1003200058467b4350440293814506d99a46802320
:100330005b029946ca4453460293030c9b464346cc
:100340001b0400041b0c9846030043440493330c25
:1003500099462b003604360c7343984633007b4392
:100360009a464b465d435f4343465544180c40193b
:10037000824503d980235b029a465744050ceb194a
:10038000059343461d042d0c00044019250c24043c
:10039000240c270057436a4390462a003b0c9a4698
:1003a0004a436143414451448344884503d98023ef
:1003b0005b02984642443f040b0c3f0c0904c919e8
:1003c000270098464b4677435c436e435d433b0ca6
:1003d0009946a4194c4442440395a64204d980236b
:1003e0005b02984645440395029b3f045b441e0014
:1003f0008342804123049846059b3f0c474498461e
:1004000076188e428941474440423d18a8464942e9
:1004100093468a46c344da449f42bf4180458041a7
:10042000039b934592418a458941984653464042f1
:100430007f420743240c524249420a433c19a41804
:10044000da0d049b75021d43681e854153464444e2
:100450006402f60d144335435a021543e30173d584
:1004600001216a080d401543e207154364084b4a11
:100470006244002a43dd6b0709d00f21294004297b
:1004800005d0291da942ad416d4264190d00e3015b
:1004900004d5434a14408022d200624441498a4232
:1004a00000dde4e66107ed08640252050d43260b0a
:1004b000520d80e68026360326433603360b01971d
:1004c000394a78e601f0befb03001a0015322030ed
:1004d0001c2a00dcb8e65646083b00229e40bde6da
:1004e000300001f0affb03001a00153220301c2a47
:1004f00000dc83e63400083b00259c4088e60121af
:10050000891a382900dd53e61f2920dc27482200fc
:1005100060442e0085408240ce40681e85413243b3
:100520002a43cc40530709d00f211140042905d09c
:10053000111d914292415242a4180a0023021fd574
:1005400001220026002536e6009b9c468fe71f20ef
:100550004042821a2000d040202903d0144a62442d
:10056000944025436a1e95412a0007250243154001
:100570000026002d07d00f21002411400429d7d1d7
:1005800065076402260bd2081543002213e6802675
:10059000360326433603360b034a0ce6ff030000fe
:1005a000fffffffefe070000ff0700001e04000023
:0405b0003e04000005
:020000040000fa
:1005b400f0b59db00490029105920393002805d0f4
:1005c40083690693002b01d101f042f9974b029afb
:1005d4009a4263d1049b5b680293029b9b891b072d
:1005e4006ad5029b1b690693002b65d000220aabd7
:1005f4000f9220325a7610329a76059e3378002b69
:1006040001d0252b62d1059bf41a0cd02300059a46
:100614000299049801f06cfa431c00d17de10f9b10
:100624001c1905930f943378002b00d175e1012236
:1006340000230aac5242626006a954327c4f52181d
:100644000a93e360a36001361370223731780522e0
:10065400380001f05dfd751c002839d12168cb06f6
:1006640004d5532306aa9b1820221a700b0704d51d
:10067400532306aa9b182b221a7033782a2b2fd0c7
:10068400350000210a20e3682a786e1c303a092ad2
:1006940000d86ce0002929d0e36027e0654b029a7a
:1006a4009a4202d1049b9b6896e7634b029a9a4252
:1006b40093d1049bdb688fe70299049800f0c0fc97
:1006c400002893d0012040421db0f0bd013695e7cb
:1006d4000123c01b834022682e0013432360b5e727
:1006e400039a08ca002b3cdbe36003922b782e2b81
:1006f40009d16b782a2b42d1039b023504cb002a03
:100704003adb626003934a4e29782836032230008c
:1007140001f0fefc002806d04023801b83402268a1
:10072400013513432360424f297838006b1c06229d
:100734002c300593217601f0ebfc5322237e06a98d
:100744005218692b32d042d8582b77d02ad8002b94
:1007540000d1f0e0522106a809180b7001230e9372
:100764005ee05b42e36002230b432360bde7434347
:1007740001219b18350087e701225242c1e700237b
:100784000a201a000135636029786e1c3039092962
:1007940003d9002bb7d06260b5e742430123521856
:1007a4003500f1e7632b32d0642bd3d103990a9b34
:1007b40020c90391190602d45b0600d52db21c4f43
:1007c400002d02da2d236d4213700a2655e0702b9a
:1007d40000d1a9e010d86f2bbcd103990a9a20c983
:1007e4000391110602d4520600d5adb2104f0a2669
:1007f4006f2b3dd108263be0752beed0782ba9d189
:10080400552306aa9b18782211371a701ae0522130
:10081400039b06ad01cb49190870012103932161a3
:1008240000235224137006abe41859e02002002080
:10083400641d00004002002000020020552206a989
:1008440052181370039a0a9b20ca03921a0602d400
:100854005a0600d5adb20122134202d01f3213430f
:100864000a931026002d03d120230a9a9a430a9250
:10087400532306aa9b1800221a700b9b0c93002b7f
:1008840003db04220a9991430a91002d05d15322d6
:1008940006a952181400002b0cd0532306aa9b1847
:1008a4001c003100280000f045fb7b5c013c2370f8
:1008b400ae423ed9082e0ed101220a9b13420ad021
:1008c4000b9b06930e9b0793079a069b934202dcad
:1008d4003023013c2370532306aa9b181b1b0e9341
:1008e400234b09aa00930aa9029b049800f01efc5a
:1008f400431c12d00e9b22000299049801f0f8f8d0
:10090400431c0ad00a9b06939b0729d4099a0d9b82
:10091400934200da13005a1c24d1029b9b895b0684
:1009240000d5cfe60f98cfe6202322681343236037
:1009340066e70500b5e723611400d1e7292206a97b
:10094400012352180498029901f0d2f8431ce4d010
:1009540001340d9b099a06939b1a9c42eedbd5e762
:100964000024f6e70f9ad31806920f9345e6c04683
:04097400f51a000070
:020000040000fa
:10097800600200201c00000000000000d0010020e0
:1009880030000000000000007c020020040000008d
:10099800000000000002002020000000000000000d
:1009a800200200202000000000000000400200207b
:1009b8002000000000000000800200200400000069
:1009c800010000007001002070010020600000009c
:1009d800010000000000000020020020400200206a
:1009e80000020020000000000000000000000000dd
:1009f80000000000000000000000000000000000ef
:100a080000000000000000000000000000000000de
:100a180000000000000000000000000000000000ce
:100a280000000000000000000000000000000000be
:100a380000000000040000206c010000010000001c
:100a4800430000000000000000000000000000005b
:100a5800000000000000000000000000000000008e
:100a6800430000000000000000000000000000003b
:100a7800000000000000000000000000000000006e
:100a8800430000000000000000000000000000001b
:100a9800000000000000000000000000000000004e
:100aa80043000000000000000000000000000000fb
:100ab800000000000000000000000000000000002e
:100ac80043000000000000000000000000000000db
:100ad800000000000000000000000000000000000e
:100ae80043000000000000000000000000000000bb
:100af80000000000000000000000000000000000ee
:100b0800430000000000000000000000000000009a
:100b180000000000000000000000000000000000cd
:100b2800fd200000bd1f000000000000400f000075
:100b3800bd210000bc210000bc210000bc21000038
:100b4800bc210000bc210000bc210000bc21000029
:100b5800bc210000bc210000ffffffffffffffffdb
:100b6800ffffffffffff0000010041534349490019
:100b7800000000000000000000000000000000006d
:100b880000000000000000000000415343494900f4
:100b9800000000000000000000000000000000004d
:100ba8000000000000000000000000008402002097
:100bb800040000000000000088020020040000007b
:100bc80000000000000000200400000000000000f9
:100bd8008c0200200400000000000000000000005b
:100be8000000000022222222222222222222222265
:020000040000fa
:100bf800f8b5ce46474680b5434b9b7d002b0ed0bb
:100c0800414a137edbb2927d52b2002a0bdb3e4a88
:100c1800137edbb2927dd20701d5db075bd40cbc17
:100c280090469946f8bd5bb2002bf0da364b5b8be9
:100c380007221340ebd0354ad385334b5b8b5b07d8
:100c48000dd0314b80221a76793a5a831b7e5b0786
:100c580005d52d4b04211a8d1a7e0a42fbd12a4b49
:100c680084221a75294b583a002199545b6a002b43
:100c7800cdd0264a906a9847c9e78368591c816095
:100c88006146cb5c1385b168137e4d462b420fd06d
:100c98008c420dd953683b40012beed143469b68eb
:100ca800591c4546a9605b0061465b5a1385eae713
:100cb800164b9a685b689a42b1d3144b00221a7596
:100cc8005a60114a01211175db68002ba7d00f4a21
:100cd80010699847a3e70d4b1b7d002b9fd00b4b4a
:100ce8009a685c68084b1b7edb07e1d5a242dfd21d
:100cf800064b1b689c46044a0727044b9846180075
:100d08001e0001239946c5e700140042d0010020c7
:020000040000fa
:100d1800f7b58a8905000c0013075dd44b68002bd2
:100d280004dc0b6c002b01dc0020febde76a002f01
:100d3800fad000232e682b6080235b011a4034d040
:100d4800606da3895b0706d56368c01a636b002bc7
:100d580001d0236cc01a0200216a00232800e76a28
:100d6800b847a189431c06d12b681d2b31d82c4ac2
:100d7800da40d3072dd50023636023692360cb04b1
:100d880005d5431c02d12b68002b00d16065616b2f
:100d98002e600029c8d023004433994202d028008d
:100da80000f0d4fb00206063bfe70123216a28001c
:100db800b847431cc5d12b68002bc2d01d2b01d0ce
:100dc800162b01d12e60afe74023a2891343a381dc
:100dd800abe740230b43fae70f69002fa4d00b6859
:100de8000f60db1b01930023920700d14b69a360be
:100df800019b002b00dc97e7019b3a00216a280041
:100e0800a66ab047002806dc40230120a289404298
:100e18001343a38189e7019b3f181b1a0193e7e756
:040e28000100402065
:020000040000fa
:100e2c00002243088b4274d303098b425fd3030a1d
:100e3c008b4244d3030b8b4228d3030c8b420dd330
:100e4c00ff22090212ba030c8b4202d312120902be
:100e5c0065d0030b8b4219d300e0090ac30b8b42fc
:100e6c0001d3cb03c01a5241830b8b4201d38b03aa
:100e7c00c01a5241430b8b4201d34b03c01a52414f
:100e8c00030b8b4201d30b03c01a5241c30a8b4292
:100e9c0001d3cb02c01a5241830a8b4201d38b027d
:100eac00c01a5241430a8b4201d34b02c01a524121
:100ebc00030a8b4201d30b02c01a5241cdd2c30993
:100ecc008b4201d3cb01c01a524183098b4201d30f
:100edc008b01c01a524143098b4201d34b01c01afa
:100eec00524103098b4201d30b01c01a5241c30872
:100efc008b4201d3cb00c01a524183088b4201d3e1
:100f0c008b00c01a524143088b4201d34b00c01acc
:100f1c005241411a00d20146524110467047ffe738
:100f2c0001b5002001f064f902bdc0460029f7d0dc
:040f3c0076e770479d
:020000040000fa
:100f40000020202020202020202028282828282099
:100f50002020202020202020202020202020202091
:100f600020881010101010101010101010101010f9
:100f700010040404040404040404041010101010e9
:100f800010104141414141410101010101010101b3
:100f90000101010101010101010101011010101005
:100fa0001010424242424242020202020202020285
:100fb00002020202020202020202020210101010d9
:100fc0002000000000000000000000000000000001
:100fd0000000000000000000000000000000000011
:100fe0000000000000000000000000000000000001
:100ff00000000000000000000000000000000000f1
:1010000000000000000000000000000000000000e0
:1010100000000000000000000000000000000000d0
:1010200000000000000000000000000000000000c0
:1010300000000000000000000000000000000000b0
:0110400000af
:020000040000fa
:021042007047f5
:020000040000fa
:10104400364b70b51d6806000c00002d05d0ab6949
:10105400002b02d1280000f0fbfb314b9c420fd146
:101064006c680c23e25e93b219072dd4d90611d40f
:1010740009230120336037331343a381404270bdf9
:10108400284b9c4201d1ac68ebe7274b9c42e8d14a
:10109400ec68e6e75b0713d5616b002908d02300f1
:1010a4004433994202d0300000f052fa00236363c3
:1010b4002422a3899343a3810023636023692360cb
:1010c4000823a2891343a3812369002b0bd1a021f8
:1010d4008022a389890092000b40934203d021000f
:1010e400300000f0ebf90123a289134011d0002352
:1010f400a36063695b42a361002023698342bed17c
:101104000c23e25e1306bad540231343a3810138ae
:10111400b5e7920700d46369a360ede7800200207d
:0c112400200200204002002000020020f9
:020000040000fa
:10113000f7b5150001938a680b6900900c00934283
:1011400000da130022002b6043321278002a01d00b
:1011500001332b6023689b0602d52b6802332b607a
:10116000062723681f4027d0230043331b785a1ecd
:1011700093412268920630d42200019943320098ac
:10118000089eb047431c25d0062320682a68e168e2
:1011900003400025042b03d18d1aeb43db171d40c0
:1011a000a3682269934201dd9b1aed180027bd4216
:1011b00020d1002010e00137e3682a689b1abb4267
:1011c000d2dd22000123193201990098089eb04710
:1011d000431cf0d101204042febd3020e1184331d4
:1011e000087021005a1c45310978a2184332023395
:1011f0001170c1e7220001231a3201990098089e5c
:0a120000b047431ce6d00137d1e7e8
:020000040000fa
:02120a0070472b
:020000040000fa
:10120c00f8b505000e001400002804d08369002beb
:10121c0001d100f019fb294b9c4234d16c68a369b5
:10122c00a360a3891b0738d52369002b35d00c2369
:10123c00e25e80239b01f7b2f6b21a4236d02368e5
:10124c002269981a6369834205dc2100280000f0aa
:10125c008bfb002827d1a3680130013ba3602368d6
:10126c005a1c22601f706369834204d0a389db0778
:10127c0007d50a2e05d12100280000f075fb0028a7
:10128c0011d13000f8bd0e4b9c4201d1ac68c6e7c1
:10129c000c4b9c42c3d1ec68c1e721002800fff73e
:1012ac00cbfe0028c3d001267642eae71343a38184
:1012bc00226e054b13402366c1e7c0462002002076
:0c12cc004002002000020020ffdfffffb6
:020000040000fa
:1012d800f8b50323cd1c9d43083506000c2d1fd2fd
:1012e8000c25a9421ed8300000f08cff25490a6859
:1012f8001400002c1ad1244f3b68002b04d1210084
:10130800300000f069fe38602900300000f064fe0b
:10131800431c2ad10c233000336000f074ff03e033
:10132800002ddeda0c2333600020f8bd23685b1b38
:1013380018d40b2b03d92360e418256003e06368f5
:10134800a2420dd10b60300000f05dff20000722a3
:101358000b30231d9043c21ae7d01b1aa350e4e7b1
:101368005360f0e722006468c3e70323c41c9c436e
:10137800a042e2d0211a300000f02efe431cdcd13e
:0c138800c8e7c046840200208802002054
:020000040000fa
:10139400f0b58fb0002000f099fd70261e4d2ee0b0
:1013a40000f0c4fccc2000f08dfebe2000f08afecc
:1013b40000f05cfe040000f059fe070000f0b6fceb
:1013c4002409e3b23c0134401c43200000f0cef970
:1013d400124a134bfef77afe00f004fa02002032a0
:1013e4002300290001a800f049fc01a800f0c6fe72
:1013f400010001a800f060fa0a4800f094fe00f031
:1014040095fccc2000f05efe442000f05bfe00f072
:10141400d9fc0028fbd0c3e740210000cdccccccc4
:08142400ccccfc3f40420f005c
:020000040000fa
:10142c001c4b00229a619a8c80218a439a841a0060
:10143c001023d1680b42fcd0174b1a68920e3f2a2e
:10144c0025d0164b1b689b059b0d92021343114a2a
:10145c0093621023d1680b42fcd00e4b02229a846b
:10146c001a001023d1680b42fcd00d4b0d4a5a6068
:10147c001a0053785bb2002bfbdb094b0a4a5a80eb
:10148c000a4b0b4a1a62034b00221a627047203a2d
:10149c00d7e7c04600080040246080002860800028
:1014ac00000c004000070100174000000004004041
:0414bc00200001000b
:020000040000fa
:1014c000f7b502268b8905000c00334206d00b00cd
:1014d00047330b600b6101234b61f7bd01ab6a46db
:1014e00000f074fa009907002800fff7f5fe0028c5
:1014f0000ed10c22a35e9a05efd4032293431e4320
:1015000023004733236023610123a6816361e4e75d
:101510000f4bab628023a28920601343a381009b01
:1015200020616361019b002b0dd00e23e15e28003a
:1015300000f08cfd002806d00322a38993431a00f3
:1015400001231343a381a0893843a081c5e7c04686
:041550005121000025
:020000040000fa
:1015540070b50500002910d00c1f2368002b00da99
:10156400e418280000f050fe1d4a1368002b05d132
:1015740063601460280000f048fe70bda34209d9de
:10158400216860188342f3d118685b6841182160b0
:10159400eee713005a68002a01d0a242f9d919686b
:1015a4005818a0420bd120680918581819608242b3
:1015b400e0d110685268411819605a60dae7a04215
:1015c40002d90c232b60d5e721686018824203d12d
:1015d400106852684118216062605c60cae7c046c6
:0415e400840200205d
:020000040000fa
:1015e800f0b5c6461f4a204b00b50021934203d2ee
:1015f800197001339342fbd10b231c4a9c46083bcc
:1016080098461368546819000026214311d0170022
:1016180091680c3700290fd11a19002c03d01e70bd
:1016280001339342fbd13a001368546819002143ef
:10163800edd104bc9046f0bd6146c91a1d19511878
:10164800002c05d05a1c505c187013009542f9d133
:10165800434623405a1e9341a4081c19a4003f196d
:101668003a00e1e7040000200000002078090000ab
:020000040000fa
:10167800f8b51c4b07001e68b369002b02d1300077
:1016880000f0e4f84836b4687368013b04d5336861
:10169800002b1cd03668f6e70c22a55e002d14d16d
:1016a8002000114b256625606560a560e360256113
:1016b8006561a56108222900583000f055fd656371
:1016c800a563a564e5642000f8bd6434dde7042162
:1016d800380000f08bfb041e3060dbd10c233b602c
:0c16e800f1e7c046002200000100fffff7
:020000040000fa
:1016f400f0b585b001900e00140000f02ffd012814
:101704000bd1731efe2b08d8050002ab1e710027f7
:10171400af4212d1300005b0f0bd2300320058337f
:1017240003a9019800f090fb0500431cefd140236e
:10173400a2891343a3810600ece703abd95da36838
:10174400013ba360002b04daa269934207db0a2958
:1017540005d023685a1c226019700137d8e722008b
:0c1764000198fff751fd431cf7d1e4e7aa
:020000040000fa
:1017700070b5002818d0c317c5185d40c40f2800e5
:1017800000f060fa164b1b1a5b055e0d0a2820dc80
:1017900003002a0015339a4013000b22101a2a0066
:1017a000c2401203120b03e0002400260022002393
:1017b000002112031800130b0a0d0a4d12051a43db
:1017c0002a40330513435b00e4075b0823431900f9
:1017d00070bd2a000b3882401203120b0023e7e78a
:1017e0001e040000ffff0f8030b5144d0a034b00ac
:1017f000120b5b0dc90f0024ab4204dd104ca34259
:1018000003dd104bcc18200030bd8024640322433c
:101810000d4ce41a1f2c08dd0c48c31ada401300e3
:101820005c420029efd11c00ede7094de040ac46d9
:1018300063449a4013000343f2e7c046fe030000ee
:101840001d040000ffffff7f3304000013040000ad
:04185000edfbffffae
:020000040000fa
:10185400836913b50400002b28d18364c364036532
:10186400134b144a1b6882620193984201d10123ed
:1018740083612000fff7fefe60602000fff7fafea0
:10188400a0602000fff7f6fe0022e06004216068fb
:1018940000f052f901220921a06800f04df902225a
:1018a4001221e06800f048f90123a36113bdc0468a
:0818b400002200005121000098
:020000040000fa
:1018bc0070b5002826d0144b1a7d0023002a1fd1a6
:1018cc00114b1860596001321a7500230f4c012519
:1018dc00072602e0c25c22850133227e2a4209d00f
:1018ec00994207d062683240012af3d15a00825ad9
:1018fc002285f1e7044a9360044b01229a75012377
:10190c00180070bd0023fbe7d0010020001400423a
:020000040000fa
:10191c00114b124a1a60124a9a81802252025a6062
:10192c001a00d369002bfcd10b4a136802210b431c
:10193c001360d369002bfcd10a4b00229a61da6147
:10194c001a622c215a545a621a605a609a601a759b
:10195c00da60da857047c04600140042040100408a
:08196c002bf6ffffd001002063
:020000040000fa
:101974000b6970b505000c00002b01d1002070bd6f
:10198400002804d08369002b01d1fff761ff0b4bc2
:101994009c4209d16c680c22a35e002beed021007e
:1019a4002800fff7b7f9eae7054b9c4201d1ac6880
:1019b400f1e7044b9c42eed1ec68ece720020020f6
:0819c400400200200002002097
:020000040000fa
:1019cc0070b50e001d000e23c95e90b014000029e6
:1019dc0007da00232b60b3891b0611d48023db00ac
:1019ec000fe001aa00f01afb0028f2dbf022029ba8
:1019fc0012021340054a9b185a4253412b60ede7e3
:101a0c0040230020236010b070bdc04600e0fffff3
:020000040000fa
:101a1c0010b5064c2378002b07d1054b002b02d0b8
:101a2c00044800e000bf0123237010bd60020020b9
:101a3c000000000000000000044b10b5002b03d088
:101a4c000349044800e000bf10bdc0460000000080
:081a5c006402002000000000fc
:020000040000fa
:101a640010b50a4b98470a4b9847fff7bbfd094b43
:101a7400ff229343084a9360084b9847084b9847c2
:101a8400084b9847fff784fcfee7c046431000006c
:101a9400431000000000000000ed00e0ad1a00005b
:081aa400431000004310000094
:020000040000fa
:101aac0070b500260c4d0d4c641ba410a64209d138
:101abc000026fef7f7fa0a4d0a4c641ba410a64246
:101acc0005d170bdb300eb5898470136eee7b30073
:101adc00eb5898470136f2e7bc000000bc00000050
:081aec00bc000000c000000076
:020000040000fa
:101af400f8b50d00096e06001400d718890418d52e
:101b04009f08bf00d719bc4201d1002008e02a0079
:101b140002cc300000f0b9fa431cf4d10120404259
:101b2400f8bd21782a00300000f0baf90134431cd2
:081b3400f4d0bc42f5d1e8e752
:020000040000fa
:101b3c00002310b504000360436083608181036659
:101b4c00c28103614361836119000822583000f09f
:101b5c0009fb054b24626362044ba362044be362f2
:101b6c00044b236310bdc046f91e0000f91c000095
:081b7c00211e00009d21000064
:020000040000fa
:101b8400f7b504000700002601914834002c01d168
:101b94003000febd6368a5680093009b013b009381
:101ba40001d52468f2e7ab89012b08d90e22ab5e7c
:101bb400013304d029003800019b9847064364355b
:021bc400ebe74d
:020000040000fa
:021bc600704766
:020000040000fa
:101bc800f80200009801000098010000940100004c
:101bd8009e0100009e010000b40200009401000074
:101be8009e010000b40200009e0100009401000064
:101bf800b0020000b0020000b0020000c202000003
:020000040000fa
:101c080010b504000c4b80225a619a60012000f044
:101c180088fa002c0cd0084b80229a613c2000f0f6
:101c280080fa054b80225a60022000f07afa10bd33
:0c1c3800014b80225a61f1e7004400419a
:020000040000fa
:101c44001c2101231b04984201d3000c10391b0ae8
:101c5400984201d3000a08391b09984201d30009ac
:101c6400043902a2105c40187047c0460403020203
:0c1c740001010101000000000000000060
:020000040000fa
:101c80000eb410b500249bb00a4b1daa02ca0693dd
:101c90000393094b0190059001a8049319940092b5
:101ca00000f020fa019b1c701bb010bc08bc03b0f4
:0c1cb0001847c046ffffff7f0802ffff3f
:020000040000fa
:101cbc0070b50c1e0ed0002a0cd01500022801d9cc
:101ccc00280070bd084b002b06d01100200000e04e
:101cdc0000bff5e70025f3e78e1820780134fff7f5
:0c1cec006cffb442f9d1ebe700000000ef
:020000040000fa
:101cf800f8b51f008b8905000c001600db0505d51b
:101d08000e23c95e0022022300f01af9a389054aae
:101d180028001340a38132000e23e15e3b0000f04f
:081d2800fbf8f8bdffefffff1f
:020000040000fa
:101d300070b50b4c80256561a560f020400000f077
:101d4000f4f965603c2000f0f0f9236a00201b06de
:101d500000d570bdd230400000f0e7f90120f8e76f
:041d600000440041fa
:020000040000fa
:101d640030313233343536373839414243444546cd
:101d74000030313233343536373839616263646563
:101d84006600232d302b2000686c4c006566674587
:031d9400464700bf
:020000040000fa
:101d9800084a1368002b09d007491818884202d846
:101da80010601800704701235b42fae7034b136089
:101db800f2e7c0468c020020980400209802002018
:020000040000fa
:101dc80070b5094c80256561a560012000f0a9f96e
:101dd80065600e2000f0a5f9246a2d2000f0a1f915
:0c1de8002006c00f70bdc0460044004142
:020000040000fa
:101df40070b564254a1e55430e0029007031fff763
:101e040069fa041e08d000212a00016046600c30e3
:0c1e1400a060643200f0aaf9200070bd4c
:020000040000fa
:101e200070b50c000e25495f00f08ef8a389421ca6
:101e300003d1054a1340a38170bd80225201134390
:0c1e4000a3816065f8e7c046ffefffffdc
:020000040000fa
:101e4c007fb51d00084b0400e0331e682b000029f1
:101e5c0001d10a0001a9b047431c03d100232b6018
:0c1e6c008a33236004b070bd0400002025
:020000040000fa
:101e780070b500290fd0002a0dd01500002808d110
:101e88000c008e18012000f0b3f920700134b44220
:0c1e9800f8d1280070bd0025fbe7c04613
:020000040000fa
:101ea400936810b5013b9360002b04da9469a34254
:101eb40007db0a2905d01368581c10601970080044
:0a1ec40010bdfff7a1f90100f9e7d6
:020000040000fa
:021ece00fee72d
:020000040000fa
:101ed00010b5084b06225a6000f0e8f8fff7a6faa2
:101ee000fff71cfd00f054f9fff78ff900f054f8ec
:081ef00010bdc0460040004196
:020000040000fa
:101ef80070b50c000e25495f00f036f8002803dbaa
:101f0800636d1b18636570bda389024a1340a381e2
:081f1800f9e7c046ffefffffef
:020000040000fa
:101f200070b50500080011000022064c22601a005e
:101f300000f05af9431c03d12368002b00d02b601a
:081f400070bdc0460000002046
:020000040000fa
:101f480070b50500080011000022064c22601a0036
:101f580000f03ef9431c03d12368002b00d02b600e
:081f680070bdc046000000201e
:020000040000fa
:101f700070b50500080011000022064c22601a000e
:101f800000f02ef9431c03d12368002b00d02b60f6
:081f900070bdc04600000020f6
:020000040000fa
:101f9800bff35f8f62b6064ac32189005358ff20fa
:101fa80083433f380343535080235b0113607047da
:041fb80000e100e064
:020000040000fa
:101fbc0082b0002900d101a9101e06d0002b06d03a
:101fcc0013780b601078431e984102b070470220c2
:041fdc004042fae79e
:020000040000fa
:101fe000002370b5064c050008002360fff7d4feff
:101ff000431c03d12368002b00d02b6070bdc0466a
:0420000000000020bc
:020000040000fa
:10200400002370b5064c05000800236000f0d6f8e4
:10201400431c03d12368002b00d02b6070bdc04645
:042024000000002098
:020000040000fa
:10202800002370b5064c050008001100236000f07d
:10203800c7f8431c03d12368002b00d02b6070bd68
:042048000000002074
:020000040000fa
:10204c00002370b5064c05000800236000f0baf8b8
:10205c00431c03d12368002b00d02b6070bdc046fd
:04206c000000002050
:020000040000fa
:1020700070b508240025fff7a7fec0016d080543d1
:0e208000edb2013ce4b2002cf5d1280070bd99
:020000040000fa
:10208e0010b50c23d45e80239b011c4204d11c434b
:0e209e009481146e23431366fff725fb10bddb
:020000040000fa
:1020ac00054b80221a607e3a47215a540f31012089
:0c20bc0058541b395a547047004400412e
:020000040000fa
:1020c80070b505000824012630002840fff798fd68
:0c20d8006d08013ce4b2002cf6d170bd94
:020000040000fa
:1020e40010b513000a00010002480068fef760fa08
:0820f40010bdc046800200206f
:020000040000fa
:1020fc000b1e04d0ff2a04d98a2303608b3b1800e3
:08210c0070470a700123fae795
:020000040000fa
:10211400c9b28218904201d10020704703788b42e3
:06212400fbd00130f6e7dc
:020000040000fa
:10212a0083001818400004d00023c04601338342bc
:04213a00fbd170471e
:020000040000fa
:02213e00fee7ba
:020000040000fa
:102140002564204620092025642043200d0a000034
:020000040000fa
:1021500010b50249fff716fd10bdc0467519000005
:020000040000fa
:102160009423024a5b00d05c7047c0460400002004
:020000040000fa
:1021700003001218934200d1704719700133f9e738
:020000040000fa
:0e2180000023c25c0133002afbd1581e7047b9
:020000040000fa
:02218e00fee76a
:020000040000fa
:0c219000014b82225a6070470040004161
:020000040000fa
:0c219c0010b50e23c95efff72fff10bd29
:020000040000fa
:0c21a80080239b0100204b607047c04664
:020000040000fa
:0b21b4004300504f53495800002e001c
:020000040000fa
:0821c00010b500f015f810bd88
:020000040000fa
:0821c80010b5fff7edff10bd9b
:020000040000fa
:0821d00010b500f017f810bd76
:020000040000fa
:0821d80010b500f015f810bd70
:020000040000fa
:0821e00010b5fff749fe10bd28
:020000040000fa
:0821e80010b5fff767fd10bd03
:020000040000fa
:0821f000012040427047c04687
:020000040000fa
:0421f800002070470c
:020000040000fa
:0421fc007047c04622
:020000040000fa
:042200007001002049
:020000040000fa
:0422040001207047fe
:020000040000fa
:0422080000207047fb
:020000040000fa
:02220c00704719
:020000040000fa
:02220e00704717
:020000040000fa
:0200000400807a
:0440000077c700d8a6
:020000040000fa
:0200000400807a
:044004005c00ffff5e
:00000001FF
